{
  "contractName": "WriteMore",
  "abi": [
    {
      "inputs": [],
      "payable": false,
      "stateMutability": "nonpayable",
      "type": "constructor"
    },
    {
      "anonymous": false,
      "inputs": [
        {
          "indexed": true,
          "internalType": "address",
          "name": "_from",
          "type": "address"
        },
        {
          "indexed": false,
          "internalType": "uint256",
          "name": "_value",
          "type": "uint256"
        },
        {
          "indexed": false,
          "internalType": "uint256",
          "name": "_days",
          "type": "uint256"
        },
        {
          "indexed": false,
          "internalType": "uint256",
          "name": "time",
          "type": "uint256"
        }
      ],
      "name": "committed",
      "type": "event"
    },
    {
      "anonymous": false,
      "inputs": [
        {
          "indexed": false,
          "internalType": "uint256",
          "name": "atStakeAmount",
          "type": "uint256"
        },
        {
          "indexed": false,
          "internalType": "uint256",
          "name": "duration",
          "type": "uint256"
        },
        {
          "indexed": false,
          "internalType": "uint256",
          "name": "cutOff",
          "type": "uint256"
        },
        {
          "indexed": false,
          "internalType": "uint256",
          "name": "deadline",
          "type": "uint256"
        },
        {
          "indexed": false,
          "internalType": "uint256",
          "name": "latestSubmitDate",
          "type": "uint256"
        },
        {
          "indexed": false,
          "internalType": "uint256",
          "name": "daysMissed",
          "type": "uint256"
        },
        {
          "indexed": false,
          "internalType": "uint256",
          "name": "returnAmount",
          "type": "uint256"
        }
      ],
      "name": "committmentDetails",
      "type": "event"
    },
    {
      "anonymous": false,
      "inputs": [
        {
          "indexed": false,
          "internalType": "uint256",
          "name": "returnAmount",
          "type": "uint256"
        },
        {
          "indexed": false,
          "internalType": "uint256",
          "name": "daysMissed",
          "type": "uint256"
        }
      ],
      "name": "endOfCommitment",
      "type": "event"
    },
    {
      "anonymous": false,
      "inputs": [
        {
          "indexed": false,
          "internalType": "bool",
          "name": "res",
          "type": "bool"
        }
      ],
      "name": "userMadeDay",
      "type": "event"
    },
    {
      "anonymous": false,
      "inputs": [
        {
          "indexed": false,
          "internalType": "uint256",
          "name": "totalDaysMissesd",
          "type": "uint256"
        },
        {
          "indexed": false,
          "internalType": "uint256",
          "name": "missedDays",
          "type": "uint256"
        },
        {
          "indexed": false,
          "internalType": "uint256",
          "name": "nextDeadline",
          "type": "uint256"
        }
      ],
      "name": "userMissedDay",
      "type": "event"
    },
    {
      "constant": false,
      "inputs": [
        {
          "internalType": "uint256",
          "name": "cutOff",
          "type": "uint256"
        },
        {
          "internalType": "uint256",
          "name": "firstDeadline",
          "type": "uint256"
        },
        {
          "internalType": "address",
          "name": "payoutAccount",
          "type": "address"
        }
      ],
      "name": "initialCommit",
      "outputs": [],
      "payable": true,
      "stateMutability": "payable",
      "type": "function"
    },
    {
      "constant": false,
      "inputs": [],
      "name": "returnCommitmentDetails",
      "outputs": [],
      "payable": false,
      "stateMutability": "nonpayable",
      "type": "function"
    },
    {
      "constant": false,
      "inputs": [],
      "name": "updateCommitment",
      "outputs": [],
      "payable": false,
      "stateMutability": "nonpayable",
      "type": "function"
    },
    {
      "constant": true,
      "inputs": [],
      "name": "getBalance",
      "outputs": [
        {
          "internalType": "uint256",
          "name": "",
          "type": "uint256"
        }
      ],
      "payable": false,
      "stateMutability": "view",
      "type": "function"
    },
    {
      "constant": false,
      "inputs": [],
      "name": "destroy",
      "outputs": [],
      "payable": false,
      "stateMutability": "nonpayable",
      "type": "function"
    }
  ],
  "bytecode": "0x608060405234801561001057600080fd5b50336000806101000a81548173ffffffffffffffffffffffffffffffffffffffff021916908373ffffffffffffffffffffffffffffffffffffffff160217905550611776806100606000396000f3fe60806040526004361061004a5760003560e01c806312065fe01461004f5780637fcee9971461007a57806383197ef014610091578063a210faac146100a8578063ef47ed0a146100bf575b600080fd5b34801561005b57600080fd5b50610064610117565b6040518082815260200191505060405180910390f35b34801561008657600080fd5b5061008f6101e1565b005b34801561009d57600080fd5b506100a6610cfb565b005b3480156100b457600080fd5b506100bd610df7565b005b610115600480360360608110156100d557600080fd5b810190808035906020019092919080359060200190929190803573ffffffffffffffffffffffffffffffffffffffff1690602001909291905050506110f0565b005b60008060009054906101000a900473ffffffffffffffffffffffffffffffffffffffff1673ffffffffffffffffffffffffffffffffffffffff163373ffffffffffffffffffffffffffffffffffffffff16146101db576040517f08c379a000000000000000000000000000000000000000000000000000000000815260040180806020018281038252600f8152602001807f4e6f74207468652063726561746f72000000000000000000000000000000000081525060200191505060405180910390fd5b47905090565b600160003373ffffffffffffffffffffffffffffffffffffffff1673ffffffffffffffffffffffffffffffffffffffff16815260200190815260200160002060070160009054906101000a900460ff166102a3576040517f08c379a00000000000000000000000000000000000000000000000000000000081526004018080602001828103825260198152602001807f4e6f20636f6d6d69746d656e7420666f7220616464726573730000000000000081525060200191505060405180910390fd5b6000600160003373ffffffffffffffffffffffffffffffffffffffff1673ffffffffffffffffffffffffffffffffffffffff1681526020019081526020016000206003015442101561050457600061033d600160003373ffffffffffffffffffffffffffffffffffffffff1673ffffffffffffffffffffffffffffffffffffffff16815260200190815260200160002060030154426115cc565b905062015180811061039a576040517f08c379a00000000000000000000000000000000000000000000000000000000081526004018080602001828103825260308152602001806116586030913960400191505060405180910390fd5b42600160003373ffffffffffffffffffffffffffffffffffffffff1673ffffffffffffffffffffffffffffffffffffffff16815260200190815260200160002060040181905550600160003373ffffffffffffffffffffffffffffffffffffffff1673ffffffffffffffffffffffffffffffffffffffff16815260200190815260200160002060030154600160003373ffffffffffffffffffffffffffffffffffffffff1673ffffffffffffffffffffffffffffffffffffffff16815260200190815260200160002060020154146105025762015180600160003373ffffffffffffffffffffffffffffffffffffffff1673ffffffffffffffffffffffffffffffffffffffff168152602001908152602001600020600301600082825401925050819055507f37284f86774c8a3256fd9c2620dcf04d3c961b036501a3402afe7348a6034f666001604051808215151515815260200191505060405180910390a15050610cf9565b505b600160003373ffffffffffffffffffffffffffffffffffffffff1673ffffffffffffffffffffffffffffffffffffffff168152602001908152602001600020600301544211156108a357600061059c42600160003373ffffffffffffffffffffffffffffffffffffffff1673ffffffffffffffffffffffffffffffffffffffff168152602001908152602001600020600301546115cc565b9050620151808110156105b257600191506105c5565b60016105c182620151806115e3565b0191505b81600160003373ffffffffffffffffffffffffffffffffffffffff1673ffffffffffffffffffffffffffffffffffffffff1681526020019081526020016000206005016000828254019250508190555042600160003373ffffffffffffffffffffffffffffffffffffffff1673ffffffffffffffffffffffffffffffffffffffff16815260200190815260200160002060040181905550600160003373ffffffffffffffffffffffffffffffffffffffff1673ffffffffffffffffffffffffffffffffffffffff16815260200190815260200160002060030154600160003373ffffffffffffffffffffffffffffffffffffffff1673ffffffffffffffffffffffffffffffffffffffff16815260200190815260200160002060020154146108a1576106f462015180836115f7565b600160003373ffffffffffffffffffffffffffffffffffffffff1673ffffffffffffffffffffffffffffffffffffffff16815260200190815260200160002060030160008282540192505081905550600160003373ffffffffffffffffffffffffffffffffffffffff1673ffffffffffffffffffffffffffffffffffffffff16815260200190815260200160002060030154600160003373ffffffffffffffffffffffffffffffffffffffff1673ffffffffffffffffffffffffffffffffffffffff16815260200190815260200160002060020154146108a0577ffb520e077901ed2b7968d8c722b612822375f398f475a68e3cd783332e7c17d4600160003373ffffffffffffffffffffffffffffffffffffffff1673ffffffffffffffffffffffffffffffffffffffff1681526020019081526020016000206005015483600160003373ffffffffffffffffffffffffffffffffffffffff1673ffffffffffffffffffffffffffffffffffffffff1681526020019081526020016000206003015460405180848152602001838152602001828152602001935050505060405180910390a15050610cf9565b5b505b600160003373ffffffffffffffffffffffffffffffffffffffff1673ffffffffffffffffffffffffffffffffffffffff16815260200190815260200160002060030154600160003373ffffffffffffffffffffffffffffffffffffffff1673ffffffffffffffffffffffffffffffffffffffff168152602001908152602001600020600201541415610cf757600160003373ffffffffffffffffffffffffffffffffffffffff1673ffffffffffffffffffffffffffffffffffffffff16815260200190815260200160002060070160019054906101000a900460ff16156109d5576040517f08c379a00000000000000000000000000000000000000000000000000000000081526004018080602001828103825260328152602001806117106032913960400191505060405180910390fd5b6000600160003373ffffffffffffffffffffffffffffffffffffffff1673ffffffffffffffffffffffffffffffffffffffff168152602001908152602001600020600501541415610aae57600160003373ffffffffffffffffffffffffffffffffffffffff1673ffffffffffffffffffffffffffffffffffffffff16815260200190815260200160002060000154600160003373ffffffffffffffffffffffffffffffffffffffff1673ffffffffffffffffffffffffffffffffffffffff16815260200190815260200160002060060181905550610bd4565b6000610b89610b41600160003373ffffffffffffffffffffffffffffffffffffffff1673ffffffffffffffffffffffffffffffffffffffff16815260200190815260200160002060000154600160003373ffffffffffffffffffffffffffffffffffffffff1673ffffffffffffffffffffffffffffffffffffffff168152602001908152602001600020600101546115e3565b600160003373ffffffffffffffffffffffffffffffffffffffff1673ffffffffffffffffffffffffffffffffffffffff168152602001908152602001600020600501546115f7565b905080600160003373ffffffffffffffffffffffffffffffffffffffff1673ffffffffffffffffffffffffffffffffffffffff16815260200190815260200160002060060181905550505b60018060003373ffffffffffffffffffffffffffffffffffffffff1673ffffffffffffffffffffffffffffffffffffffff16815260200190815260200160002060070160016101000a81548160ff0219169083151502179055507f13c25a6bac15ce39fb4471ba74ac7384d00473e4bb8efe5b529150034d2a177c600160003373ffffffffffffffffffffffffffffffffffffffff1673ffffffffffffffffffffffffffffffffffffffff16815260200190815260200160002060060154600160003373ffffffffffffffffffffffffffffffffffffffff1673ffffffffffffffffffffffffffffffffffffffff16815260200190815260200160002060050154604051808381526020018281526020019250505060405180910390a150610cf9565b505b565b6000809054906101000a900473ffffffffffffffffffffffffffffffffffffffff1673ffffffffffffffffffffffffffffffffffffffff163373ffffffffffffffffffffffffffffffffffffffff1614610dbd576040517f08c379a000000000000000000000000000000000000000000000000000000000815260040180806020018281038252600f8152602001807f4e6f74207468652063726561746f72000000000000000000000000000000000081525060200191505060405180910390fd5b6000809054906101000a900473ffffffffffffffffffffffffffffffffffffffff1673ffffffffffffffffffffffffffffffffffffffff16ff5b600160003373ffffffffffffffffffffffffffffffffffffffff1673ffffffffffffffffffffffffffffffffffffffff16815260200190815260200160002060070160009054906101000a900460ff16610eb9576040517f08c379a00000000000000000000000000000000000000000000000000000000081526004018080602001828103825260198152602001807f4e6f20636f6d6d69746d656e7420666f7220616464726573730000000000000081525060200191505060405180910390fd5b7f44190c99529da448bda126cd1cc7c54ebe2f3b2991b250e7c6d03b85f125fa1f600160003373ffffffffffffffffffffffffffffffffffffffff1673ffffffffffffffffffffffffffffffffffffffff16815260200190815260200160002060000154600160003373ffffffffffffffffffffffffffffffffffffffff1673ffffffffffffffffffffffffffffffffffffffff16815260200190815260200160002060010154600160003373ffffffffffffffffffffffffffffffffffffffff1673ffffffffffffffffffffffffffffffffffffffff16815260200190815260200160002060020154600160003373ffffffffffffffffffffffffffffffffffffffff1673ffffffffffffffffffffffffffffffffffffffff16815260200190815260200160002060030154600160003373ffffffffffffffffffffffffffffffffffffffff1673ffffffffffffffffffffffffffffffffffffffff16815260200190815260200160002060040154600160003373ffffffffffffffffffffffffffffffffffffffff1673ffffffffffffffffffffffffffffffffffffffff16815260200190815260200160002060050154600160003373ffffffffffffffffffffffffffffffffffffffff1673ffffffffffffffffffffffffffffffffffffffff168152602001908152602001600020600601546040518088815260200187815260200186815260200185815260200184815260200183815260200182815260200197505050505050505060405180910390a1565b600160003373ffffffffffffffffffffffffffffffffffffffff1673ffffffffffffffffffffffffffffffffffffffff16815260200190815260200160002060070160009054906101000a900460ff1615801561119a5750600160003373ffffffffffffffffffffffffffffffffffffffff1673ffffffffffffffffffffffffffffffffffffffff16815260200190815260200160002060070160019054906101000a900460ff16155b61120c576040517f08c379a00000000000000000000000000000000000000000000000000000000081526004018080602001828103825260188152602001807f416c726561647920686173206120636f6d6d69746d656e74000000000000000081525060200191505060405180910390fd5b662386f26fc1000034118015611229575067016345785d8a000034105b61127e576040517f08c379a00000000000000000000000000000000000000000000000000000000081526004018080602001828103825260248152602001806116886024913960400191505060405180910390fd5b4282116112d6576040517f08c379a000000000000000000000000000000000000000000000000000000000815260040180806020018281038252602c81526020018061162c602c913960400191505060405180910390fd5b6000620151806112e685856115cc565b816112ed57fe5b06905060008114611349576040517f08c379a00000000000000000000000000000000000000000000000000000000081526004018080602001828103825260378152602001806116d96037913960400191505060405180910390fd5b600061135584426115cc565b9050620151808110156113b3576040517f08c379a000000000000000000000000000000000000000000000000000000000815260040180806020018281038252602d8152602001806116ac602d913960400191505060405180910390fd5b60006113bf86866115cc565b9050600060016113d283620151806115e3565b01905060004290506000809050600080905060006001905060008090506040518061014001604052803481526020018781526020018d81526020018c8152602001868152602001858152602001848152602001831515815260200182151581526020018b73ffffffffffffffffffffffffffffffffffffffff16815250600160003373ffffffffffffffffffffffffffffffffffffffff1673ffffffffffffffffffffffffffffffffffffffff168152602001908152602001600020600082015181600001556020820151816001015560408201518160020155606082015181600301556080820151816004015560a0820151816005015560c0820151816006015560e08201518160070160006101000a81548160ff0219169083151502179055506101008201518160070160016101000a81548160ff0219169083151502179055506101208201518160070160026101000a81548173ffffffffffffffffffffffffffffffffffffffff021916908373ffffffffffffffffffffffffffffffffffffffff1602179055509050503373ffffffffffffffffffffffffffffffffffffffff167f6c772692c31e464d96381fb4b50a276ec1c51c68dcf6b18fbc3a937fb04f2f4734884260405180848152602001838152602001828152602001935050505060405180910390a2505050505050505050505050565b6000828211156115d857fe5b818303905092915050565b60008183816115ee57fe5b04905092915050565b60008083141561160a5760009050611625565b81830290508183828161161957fe5b041461162157fe5b8090505b9291505056fe6669727374446561646c696e652063616e74206265206265666f726520626c6f636b2e74696d657374616d7055736572206d757374207375626d6974206f6e6c792077697468696e2032344872732066726f6d20646561646c696e6553656e7420746f6f206d756368206f7220746f6f206c6974746c65206174207374616b654d7573742068617665206120646179206265747765656e206e6f7720616e64206669727374446561646c696e65526571756972696e67206669727374446561646c696e6520746f2062652065786163746c792032346872732066726f6d206375746f666643616e7420757064617465206166746572206375744f66662c20706c65617365207265747269657665206f722072656e6577a265627a7a723158206c254a4e34f0f17bad32bdc32e90503804b2d0130956dfe4e0f5007182fd043964736f6c63430005100032",
  "source": "// SPDX-License-Identifier: MIT\npragma solidity >=0.4.22 <0.9.0;\n\nimport {SafeMath as SafeMath} from \"./SafeMath.sol\";\n\ncontract WriteMore  {\n    \n\n    struct Commitment {\n        // Amount of eth at stake\n        uint256 atStakeAmount;\n        // Amount of time \n        uint256 duration;\n        // cutOff is always at least 1 11:59 standardtime from the day of initial commitment\n        uint256 cutOff;\n\n        // starts at 1 11:59 from day of initial commitment\n        uint256 nextDeadline;\n\n        // time in which a user most recently submitted their work\n        uint256 latestSubmitDate;\n\n        // counter for days missed\n        uint256 daysMissed;\n\n        // value in what will be returned\n        uint256 returnAmount;\n        \n        // If the contract is valid at an anddress\n        bool isValid;\n\n        //Can the user recieve their atstake amount, pay their payoutAccount or refresh \n        bool returnReady;\n\n        //Address to whom the user agrees the money can go to if they dont complete the task\n        address payoutAccount;\n\n    }\n\n\n    event committed(\n        address indexed _from,\n        uint _value,\n        uint _days,\n        uint time\n    );\n\n    event committmentDetails(\n        uint256 atStakeAmount,\n        uint256 duration,\n        uint256 cutOff,\n        uint256 deadline,\n        uint256 latestSubmitDate,\n        uint256 daysMissed,\n        uint256 returnAmount\n    );\n\n    event endOfCommitment(\n        uint256 returnAmount,\n        uint256 daysMissed\n    );\n\n    event userMissedDay(uint256 totalDaysMissesd, uint256 missedDays, uint256 nextDeadline);\n    event userMadeDay(bool res);\n\n\n    address payable creator;\n    mapping(address => Commitment) committedUsers;\n\n\n    constructor() public {\n        creator = msg.sender;\n    }\n\n    // cutOff refers to endingTime: duration is all days up until that given last dayTime\n    function initialCommit(uint256 cutOff, uint256 firstDeadline, address payoutAccount) public payable {            \n        require(!committedUsers[msg.sender].isValid && !committedUsers[msg.sender].returnReady, \"Already has a commitment\");\n        require(msg.value > 0.01 ether && msg.value < 0.1 ether, \"Sent too much or too little at stake\");\n        require(firstDeadline > block.timestamp , \"firstDeadline cant be before block.timestamp\");\n        uint256 remainder = (SafeMath.sub(cutOff, firstDeadline)) % 86400;\n        require(remainder == 0, \"Requiring firstDeadline to be exactly 24hrs from cutoff\" );\n        uint256 differenceOne = SafeMath.sub(firstDeadline, block.timestamp);\n\n\n        require(differenceOne >= 86400, \"Must have a day between now and firstDeadline\");\n        // adding one to account for the time between now and firstDeadline\n        uint256 differenceTwo = SafeMath.sub(cutOff, firstDeadline);\n\n        uint256 duration = (SafeMath.div(differenceTwo, 86400) + 1);\n        uint256 defaultSubmitDate = block.timestamp;\n        uint256 defaultDaysMissed = 0;\n        uint256 defaultReturnAmount = 0;\n        bool valid = true;\n        bool returnReady = false;\n\n\n        committedUsers[msg.sender] = Commitment(msg.value, duration, cutOff, firstDeadline, defaultSubmitDate, defaultDaysMissed, defaultReturnAmount, valid, returnReady, payoutAccount);\n        \n        // emit the event\n        emit committed(msg.sender, msg.value, duration, block.timestamp);\n    }\n  \n    function returnCommitmentDetails() public {\n        // require the person performing this call to be the person at this address\n        require(committedUsers[msg.sender].isValid, \"No commitment for address\");\n\n        emit committmentDetails(committedUsers[msg.sender].atStakeAmount, \n        committedUsers[msg.sender].duration,\n        committedUsers[msg.sender].cutOff, \n        committedUsers[msg.sender].nextDeadline, \n        committedUsers[msg.sender].latestSubmitDate,\n        committedUsers[msg.sender].daysMissed,\n        committedUsers[msg.sender].returnAmount);\n    }\n\n    function updateCommitment() public {\n        require(committedUsers[msg.sender].isValid, \"No commitment for address\");\n        uint256 missedDays;\n        // If we know the user didnt miss a day\n        if(block.timestamp < committedUsers[msg.sender].nextDeadline ){\n          uint256 checkDoubleSubmit = SafeMath.sub(committedUsers[msg.sender].nextDeadline, block.timestamp);\n          require(checkDoubleSubmit < 86400, \"User must submit only within 24Hrs from deadline\");\n          committedUsers[msg.sender].latestSubmitDate = block.timestamp;\n\n          if(committedUsers[msg.sender].cutOff != committedUsers[msg.sender].nextDeadline){\n                committedUsers[msg.sender].nextDeadline += 86400;\n                emit userMadeDay(true);\n                return;\n          }\n        }\n        // If we know that the user missed atleast a day\n        if(block.timestamp > committedUsers[msg.sender].nextDeadline){\n            uint256 dateDifference = SafeMath.sub(block.timestamp, committedUsers[msg.sender].nextDeadline);\n            if(dateDifference < 86400){\n                missedDays = 1;\n            } else {\n                missedDays = SafeMath.div(dateDifference, 86400) + 1;\n            }\n            committedUsers[msg.sender].daysMissed += missedDays; \n            committedUsers[msg.sender].latestSubmitDate = block.timestamp;\n\n            if(committedUsers[msg.sender].cutOff != committedUsers[msg.sender].nextDeadline){\n\n                committedUsers[msg.sender].nextDeadline +=  SafeMath.mul(86400, missedDays);\n\n                if(committedUsers[msg.sender].cutOff != committedUsers[msg.sender].nextDeadline){\n                        emit userMissedDay(committedUsers[msg.sender].daysMissed, missedDays, committedUsers[msg.sender].nextDeadline);\n                        return;\n                }\n            }            \n        }\n\n            // If its the last day of the contract\n        if(committedUsers[msg.sender].cutOff == committedUsers[msg.sender].nextDeadline){\n            // calculate return amount = Multiple (amount at stake per day by days missed)\n            require(!committedUsers[msg.sender].returnReady, \"Cant update after cutOff, please retrieve or renew\");\n\n            if(committedUsers[msg.sender].daysMissed == 0){\n                committedUsers[msg.sender].returnAmount = committedUsers[msg.sender].atStakeAmount;\n            } else {\n            uint256 returnAmount = SafeMath.mul((SafeMath.div(committedUsers[msg.sender].atStakeAmount,  committedUsers[msg.sender].duration)), committedUsers[msg.sender].daysMissed);\n            committedUsers[msg.sender].returnAmount = returnAmount;\n            }\n\n            committedUsers[msg.sender].returnReady = true; \n\n            //emit user's Commitment is over\n            emit endOfCommitment(committedUsers[msg.sender].returnAmount, committedUsers[msg.sender].daysMissed);\n            return;\n        }\n   \n    }\n\n    function getBalance() public view returns (uint256) {\n        require(msg.sender == creator, \"Not the creator\");\n\n        return address(this).balance;\n    }\n\n    // Contract destructor\n    function destroy() public  {\n        require(msg.sender == creator, \"Not the creator\");\n        selfdestruct(creator);\n    }\n\n}",
  "sourcePath": "/Users/connorbovino/Documents/arbNode/contracts/WriteMore.sol",
  "compiler": {
    "name": "solc",
    "version": "0.5.16+commit.9c3226ce.Emscripten.clang"
  },
  "schemaVersion": "3.3.4",
  "updatedAt": "2021-04-21T00:42:40.845Z",
  "devdoc": {
    "methods": {}
  },
  "userdoc": {
    "methods": {}
  }
}