{
  "contractName": "WriteMore",
  "abi": [
    {
      "inputs": [],
      "payable": false,
      "stateMutability": "nonpayable",
      "type": "constructor"
    },
    {
      "anonymous": false,
      "inputs": [
        {
          "indexed": true,
          "internalType": "address",
          "name": "_from",
          "type": "address"
        },
        {
          "indexed": false,
          "internalType": "uint256",
          "name": "_value",
          "type": "uint256"
        },
        {
          "indexed": false,
          "internalType": "uint256",
          "name": "_days",
          "type": "uint256"
        },
        {
          "indexed": false,
          "internalType": "uint256",
          "name": "time",
          "type": "uint256"
        }
      ],
      "name": "committed",
      "type": "event"
    },
    {
      "anonymous": false,
      "inputs": [
        {
          "indexed": false,
          "internalType": "uint256",
          "name": "atStakeAmount",
          "type": "uint256"
        },
        {
          "indexed": false,
          "internalType": "uint256",
          "name": "duration",
          "type": "uint256"
        },
        {
          "indexed": false,
          "internalType": "uint256",
          "name": "cutOff",
          "type": "uint256"
        },
        {
          "indexed": false,
          "internalType": "uint256",
          "name": "deadline",
          "type": "uint256"
        },
        {
          "indexed": false,
          "internalType": "uint256",
          "name": "latestSubmitDate",
          "type": "uint256"
        },
        {
          "indexed": false,
          "internalType": "uint256",
          "name": "daysMissed",
          "type": "uint256"
        },
        {
          "indexed": false,
          "internalType": "uint256",
          "name": "returnAmount",
          "type": "uint256"
        }
      ],
      "name": "committmentDetails",
      "type": "event"
    },
    {
      "anonymous": false,
      "inputs": [
        {
          "indexed": false,
          "internalType": "uint256",
          "name": "returnAmount",
          "type": "uint256"
        },
        {
          "indexed": false,
          "internalType": "uint256",
          "name": "daysMissed",
          "type": "uint256"
        }
      ],
      "name": "endOfCommitment",
      "type": "event"
    },
    {
      "anonymous": false,
      "inputs": [
        {
          "indexed": false,
          "internalType": "bool",
          "name": "res",
          "type": "bool"
        },
        {
          "indexed": false,
          "internalType": "uint256",
          "name": "nextDeadline",
          "type": "uint256"
        }
      ],
      "name": "userMadeDay",
      "type": "event"
    },
    {
      "anonymous": false,
      "inputs": [
        {
          "indexed": false,
          "internalType": "uint256",
          "name": "totalDaysMissesd",
          "type": "uint256"
        },
        {
          "indexed": false,
          "internalType": "uint256",
          "name": "missedDays",
          "type": "uint256"
        },
        {
          "indexed": false,
          "internalType": "uint256",
          "name": "nextDeadline",
          "type": "uint256"
        }
      ],
      "name": "userMissedDay",
      "type": "event"
    },
    {
      "constant": false,
      "inputs": [
        {
          "internalType": "uint256",
          "name": "cutOff",
          "type": "uint256"
        },
        {
          "internalType": "uint256",
          "name": "firstDeadline",
          "type": "uint256"
        },
        {
          "internalType": "address payable",
          "name": "payoutAccount",
          "type": "address"
        }
      ],
      "name": "initialCommit",
      "outputs": [],
      "payable": true,
      "stateMutability": "payable",
      "type": "function"
    },
    {
      "constant": false,
      "inputs": [],
      "name": "returnCommitmentDetails",
      "outputs": [],
      "payable": false,
      "stateMutability": "nonpayable",
      "type": "function"
    },
    {
      "constant": false,
      "inputs": [],
      "name": "updateCommitment",
      "outputs": [],
      "payable": false,
      "stateMutability": "nonpayable",
      "type": "function"
    },
    {
      "constant": true,
      "inputs": [],
      "name": "getBalance",
      "outputs": [
        {
          "internalType": "uint256",
          "name": "",
          "type": "uint256"
        }
      ],
      "payable": false,
      "stateMutability": "view",
      "type": "function"
    },
    {
      "constant": false,
      "inputs": [],
      "name": "resolveCommitment",
      "outputs": [],
      "payable": false,
      "stateMutability": "nonpayable",
      "type": "function"
    },
    {
      "constant": false,
      "inputs": [],
      "name": "destroy",
      "outputs": [],
      "payable": false,
      "stateMutability": "nonpayable",
      "type": "function"
    }
  ],
  "bytecode": "0x608060405234801561001057600080fd5b50336000806101000a81548173ffffffffffffffffffffffffffffffffffffffff021916908373ffffffffffffffffffffffffffffffffffffffff160217905550611be8806100606000396000f3fe6080604052600436106100555760003560e01c806306a71c991461005a57806312065fe0146100715780637fcee9971461009c57806383197ef0146100b3578063a210faac146100ca578063ef47ed0a146100e1575b600080fd5b34801561006657600080fd5b5061006f610139565b005b34801561007d57600080fd5b506100866104ae565b6040518082815260200191505060405180910390f35b3480156100a857600080fd5b506100b1610578565b005b3480156100bf57600080fd5b506100c86110e4565b005b3480156100d657600080fd5b506100df6111e0565b005b610137600480360360608110156100f757600080fd5b810190808035906020019092919080359060200190929190803573ffffffffffffffffffffffffffffffffffffffff1690602001909291905050506114d9565b005b600160003373ffffffffffffffffffffffffffffffffffffffff1673ffffffffffffffffffffffffffffffffffffffff16815260200190815260200160002060070160019054906101000a900460ff166101de576040517f08c379a0000000000000000000000000000000000000000000000000000000008152600401808060200182810382526025815260200180611af96025913960400191505060405180910390fd5b600061026e600160003373ffffffffffffffffffffffffffffffffffffffff1673ffffffffffffffffffffffffffffffffffffffff16815260200190815260200160002060000154600160003373ffffffffffffffffffffffffffffffffffffffff1673ffffffffffffffffffffffffffffffffffffffff16815260200190815260200160002060060154611a19565b9050600081111561036557600160003373ffffffffffffffffffffffffffffffffffffffff1673ffffffffffffffffffffffffffffffffffffffff16815260200190815260200160002060070160029054906101000a900473ffffffffffffffffffffffffffffffffffffffff1673ffffffffffffffffffffffffffffffffffffffff166108fc600160003373ffffffffffffffffffffffffffffffffffffffff1673ffffffffffffffffffffffffffffffffffffffff168152602001908152602001600020600601549081150290604051600060405180830381858888f19350505050158015610363573d6000803e3d6000fd5b505b600160003373ffffffffffffffffffffffffffffffffffffffff1673ffffffffffffffffffffffffffffffffffffffff16815260200190815260200160002060080160009054906101000a900473ffffffffffffffffffffffffffffffffffffffff1673ffffffffffffffffffffffffffffffffffffffff166108fc600160003373ffffffffffffffffffffffffffffffffffffffff1673ffffffffffffffffffffffffffffffffffffffff168152602001908152602001600020600601549081150290604051600060405180830381858888f1935050505015801561044f573d6000803e3d6000fd5b506000600160003373ffffffffffffffffffffffffffffffffffffffff1673ffffffffffffffffffffffffffffffffffffffff16815260200190815260200160002060070160016101000a81548160ff02191690831515021790555050565b60008060009054906101000a900473ffffffffffffffffffffffffffffffffffffffff1673ffffffffffffffffffffffffffffffffffffffff163373ffffffffffffffffffffffffffffffffffffffff1614610572576040517f08c379a000000000000000000000000000000000000000000000000000000000815260040180806020018281038252600f8152602001807f4e6f74207468652063726561746f72000000000000000000000000000000000081525060200191505060405180910390fd5b47905090565b600160003373ffffffffffffffffffffffffffffffffffffffff1673ffffffffffffffffffffffffffffffffffffffff16815260200190815260200160002060070160009054906101000a900460ff1661063a576040517f08c379a00000000000000000000000000000000000000000000000000000000081526004018080602001828103825260198152602001807f4e6f20636f6d6d69746d656e7420666f7220616464726573730000000000000081525060200191505060405180910390fd5b6000600160003373ffffffffffffffffffffffffffffffffffffffff1673ffffffffffffffffffffffffffffffffffffffff168152602001908152602001600020600301544210156108e45760006106d4600160003373ffffffffffffffffffffffffffffffffffffffff1673ffffffffffffffffffffffffffffffffffffffff1681526020019081526020016000206003015442611a19565b9050620151808110610731576040517f08c379a0000000000000000000000000000000000000000000000000000000008152600401808060200182810382526030815260200180611aa56030913960400191505060405180910390fd5b42600160003373ffffffffffffffffffffffffffffffffffffffff1673ffffffffffffffffffffffffffffffffffffffff16815260200190815260200160002060040181905550600160003373ffffffffffffffffffffffffffffffffffffffff1673ffffffffffffffffffffffffffffffffffffffff16815260200190815260200160002060030154600160003373ffffffffffffffffffffffffffffffffffffffff1673ffffffffffffffffffffffffffffffffffffffff16815260200190815260200160002060020154146108e25762015180600160003373ffffffffffffffffffffffffffffffffffffffff1673ffffffffffffffffffffffffffffffffffffffff168152602001908152602001600020600301600082825401925050819055507f48511ad7f6315f84d8ee0ec4fbd9f15a9ea151d1e084976173ee18785f38c64060018060003373ffffffffffffffffffffffffffffffffffffffff1673ffffffffffffffffffffffffffffffffffffffff1681526020019081526020016000206003015460405180831515151581526020018281526020019250505060405180910390a150506110e2565b505b600160003373ffffffffffffffffffffffffffffffffffffffff1673ffffffffffffffffffffffffffffffffffffffff16815260200190815260200160002060030154421115610c8c57600061097c42600160003373ffffffffffffffffffffffffffffffffffffffff1673ffffffffffffffffffffffffffffffffffffffff16815260200190815260200160002060030154611a19565b90506201518081101561099257600191506109a2565b61099f8162015180611a30565b91505b81600160003373ffffffffffffffffffffffffffffffffffffffff1673ffffffffffffffffffffffffffffffffffffffff16815260200190815260200160002060050160008282540192505081905550600160003373ffffffffffffffffffffffffffffffffffffffff1673ffffffffffffffffffffffffffffffffffffffff16815260200190815260200160002060030154600160003373ffffffffffffffffffffffffffffffffffffffff1673ffffffffffffffffffffffffffffffffffffffff1681526020019081526020016000206002015414610c8a57610a8a6201518083611a44565b600160003373ffffffffffffffffffffffffffffffffffffffff1673ffffffffffffffffffffffffffffffffffffffff16815260200190815260200160002060030160008282540192505081905550600160003373ffffffffffffffffffffffffffffffffffffffff1673ffffffffffffffffffffffffffffffffffffffff16815260200190815260200160002060030154600160003373ffffffffffffffffffffffffffffffffffffffff1673ffffffffffffffffffffffffffffffffffffffff1681526020019081526020016000206002015414610c895762015180600160003373ffffffffffffffffffffffffffffffffffffffff1673ffffffffffffffffffffffffffffffffffffffff168152602001908152602001600020600301600082825401925050819055507ffb520e077901ed2b7968d8c722b612822375f398f475a68e3cd783332e7c17d4600160003373ffffffffffffffffffffffffffffffffffffffff1673ffffffffffffffffffffffffffffffffffffffff1681526020019081526020016000206005015483600160003373ffffffffffffffffffffffffffffffffffffffff1673ffffffffffffffffffffffffffffffffffffffff1681526020019081526020016000206003015460405180848152602001838152602001828152602001935050505060405180910390a150506110e2565b5b505b600160003373ffffffffffffffffffffffffffffffffffffffff1673ffffffffffffffffffffffffffffffffffffffff16815260200190815260200160002060030154600160003373ffffffffffffffffffffffffffffffffffffffff1673ffffffffffffffffffffffffffffffffffffffff1681526020019081526020016000206002015414156110e057600160003373ffffffffffffffffffffffffffffffffffffffff1673ffffffffffffffffffffffffffffffffffffffff16815260200190815260200160002060070160019054906101000a900460ff1615610dbe576040517f08c379a0000000000000000000000000000000000000000000000000000000008152600401808060200182810382526032815260200180611b826032913960400191505060405180910390fd5b6000600160003373ffffffffffffffffffffffffffffffffffffffff1673ffffffffffffffffffffffffffffffffffffffff168152602001908152602001600020600501541415610e9757600160003373ffffffffffffffffffffffffffffffffffffffff1673ffffffffffffffffffffffffffffffffffffffff16815260200190815260200160002060000154600160003373ffffffffffffffffffffffffffffffffffffffff1673ffffffffffffffffffffffffffffffffffffffff16815260200190815260200160002060060181905550610fbd565b6000610f72610f2a600160003373ffffffffffffffffffffffffffffffffffffffff1673ffffffffffffffffffffffffffffffffffffffff16815260200190815260200160002060000154600160003373ffffffffffffffffffffffffffffffffffffffff1673ffffffffffffffffffffffffffffffffffffffff16815260200190815260200160002060010154611a30565b600160003373ffffffffffffffffffffffffffffffffffffffff1673ffffffffffffffffffffffffffffffffffffffff16815260200190815260200160002060050154611a44565b905080600160003373ffffffffffffffffffffffffffffffffffffffff1673ffffffffffffffffffffffffffffffffffffffff16815260200190815260200160002060060181905550505b60018060003373ffffffffffffffffffffffffffffffffffffffff1673ffffffffffffffffffffffffffffffffffffffff16815260200190815260200160002060070160016101000a81548160ff0219169083151502179055507f13c25a6bac15ce39fb4471ba74ac7384d00473e4bb8efe5b529150034d2a177c600160003373ffffffffffffffffffffffffffffffffffffffff1673ffffffffffffffffffffffffffffffffffffffff16815260200190815260200160002060060154600160003373ffffffffffffffffffffffffffffffffffffffff1673ffffffffffffffffffffffffffffffffffffffff16815260200190815260200160002060050154604051808381526020018281526020019250505060405180910390a1506110e2565b505b565b6000809054906101000a900473ffffffffffffffffffffffffffffffffffffffff1673ffffffffffffffffffffffffffffffffffffffff163373ffffffffffffffffffffffffffffffffffffffff16146111a6576040517f08c379a000000000000000000000000000000000000000000000000000000000815260040180806020018281038252600f8152602001807f4e6f74207468652063726561746f72000000000000000000000000000000000081525060200191505060405180910390fd5b6000809054906101000a900473ffffffffffffffffffffffffffffffffffffffff1673ffffffffffffffffffffffffffffffffffffffff16ff5b600160003373ffffffffffffffffffffffffffffffffffffffff1673ffffffffffffffffffffffffffffffffffffffff16815260200190815260200160002060070160009054906101000a900460ff166112a2576040517f08c379a00000000000000000000000000000000000000000000000000000000081526004018080602001828103825260198152602001807f4e6f20636f6d6d69746d656e7420666f7220616464726573730000000000000081525060200191505060405180910390fd5b7f44190c99529da448bda126cd1cc7c54ebe2f3b2991b250e7c6d03b85f125fa1f600160003373ffffffffffffffffffffffffffffffffffffffff1673ffffffffffffffffffffffffffffffffffffffff16815260200190815260200160002060000154600160003373ffffffffffffffffffffffffffffffffffffffff1673ffffffffffffffffffffffffffffffffffffffff16815260200190815260200160002060010154600160003373ffffffffffffffffffffffffffffffffffffffff1673ffffffffffffffffffffffffffffffffffffffff16815260200190815260200160002060020154600160003373ffffffffffffffffffffffffffffffffffffffff1673ffffffffffffffffffffffffffffffffffffffff16815260200190815260200160002060030154600160003373ffffffffffffffffffffffffffffffffffffffff1673ffffffffffffffffffffffffffffffffffffffff16815260200190815260200160002060040154600160003373ffffffffffffffffffffffffffffffffffffffff1673ffffffffffffffffffffffffffffffffffffffff16815260200190815260200160002060050154600160003373ffffffffffffffffffffffffffffffffffffffff1673ffffffffffffffffffffffffffffffffffffffff168152602001908152602001600020600601546040518088815260200187815260200186815260200185815260200184815260200183815260200182815260200197505050505050505060405180910390a1565b600160003373ffffffffffffffffffffffffffffffffffffffff1673ffffffffffffffffffffffffffffffffffffffff16815260200190815260200160002060070160009054906101000a900460ff161580156115835750600160003373ffffffffffffffffffffffffffffffffffffffff1673ffffffffffffffffffffffffffffffffffffffff16815260200190815260200160002060070160019054906101000a900460ff16155b6115f5576040517f08c379a00000000000000000000000000000000000000000000000000000000081526004018080602001828103825260188152602001807f416c726561647920686173206120636f6d6d69746d656e74000000000000000081525060200191505060405180910390fd5b662386f26fc1000034118015611612575067016345785d8a000034105b611667576040517f08c379a0000000000000000000000000000000000000000000000000000000008152600401808060200182810382526024815260200180611ad56024913960400191505060405180910390fd5b4282116116bf576040517f08c379a000000000000000000000000000000000000000000000000000000000815260040180806020018281038252602c815260200180611a79602c913960400191505060405180910390fd5b6000620151806116cf8585611a19565b816116d657fe5b06905060008114611732576040517f08c379a0000000000000000000000000000000000000000000000000000000008152600401808060200182810382526037815260200180611b4b6037913960400191505060405180910390fd5b600061173e8442611a19565b90506201518081101561179c576040517f08c379a000000000000000000000000000000000000000000000000000000000815260040180806020018281038252602d815260200180611b1e602d913960400191505060405180910390fd5b60006117a88686611a19565b9050600060016117bb8362015180611a30565b01905060004290506000809050600080905060006001905060008090506040518061016001604052803481526020018781526020018d81526020018c8152602001868152602001858152602001848152602001831515815260200182151581526020018b73ffffffffffffffffffffffffffffffffffffffff1681526020013373ffffffffffffffffffffffffffffffffffffffff16815250600160003373ffffffffffffffffffffffffffffffffffffffff1673ffffffffffffffffffffffffffffffffffffffff168152602001908152602001600020600082015181600001556020820151816001015560408201518160020155606082015181600301556080820151816004015560a0820151816005015560c0820151816006015560e08201518160070160006101000a81548160ff0219169083151502179055506101008201518160070160016101000a81548160ff0219169083151502179055506101208201518160070160026101000a81548173ffffffffffffffffffffffffffffffffffffffff021916908373ffffffffffffffffffffffffffffffffffffffff1602179055506101408201518160080160006101000a81548173ffffffffffffffffffffffffffffffffffffffff021916908373ffffffffffffffffffffffffffffffffffffffff1602179055509050503373ffffffffffffffffffffffffffffffffffffffff167f6c772692c31e464d96381fb4b50a276ec1c51c68dcf6b18fbc3a937fb04f2f4734884260405180848152602001838152602001828152602001935050505060405180910390a2505050505050505050505050565b600082821115611a2557fe5b818303905092915050565b6000818381611a3b57fe5b04905092915050565b600080831415611a575760009050611a72565b818302905081838281611a6657fe5b0414611a6e57fe5b8090505b9291505056fe6669727374446561646c696e652063616e74206265206265666f726520626c6f636b2e74696d657374616d7055736572206d757374207375626d6974206f6e6c792077697468696e2032344872732066726f6d20646561646c696e6553656e7420746f6f206d756368206f7220746f6f206c6974746c65206174207374616b65436f6d6d69746d656e742069736e277420726561647920746f2062652072657475726e65644d7573742068617665206120646179206265747765656e206e6f7720616e64206669727374446561646c696e65526571756972696e67206669727374446561646c696e6520746f2062652065786163746c792032346872732066726f6d206375746f666643616e7420757064617465206166746572206375744f66662c20706c65617365207265747269657665206f722072656e6577a265627a7a7231582052b6c857df865f316edf6ba12c98413d80116847c55f3441f7b1a714caf6b9da64736f6c63430005100032",
  "source": "// SPDX-License-Identifier: MIT\npragma solidity >=0.4.22 <0.9.0;\n\nimport {SafeMath as SafeMath} from \"./SafeMath.sol\";\n\ncontract WriteMore  {\n    \n\n    struct Commitment {\n        // Amount of eth at stake\n        uint256 atStakeAmount;\n        // Amount of time \n        uint256 duration;\n        // cutOff is always at least 1 11:59 standardtime from the day of initial commitment\n        uint256 cutOff;\n\n        // starts at 1 11:59 from day of initial commitment\n        uint256 nextDeadline;\n\n        // time in which a user most recently submitted their work\n        uint256 latestSubmitDate;\n\n        // counter for days missed\n        uint256 daysMissed;\n\n        // value in what will be returned\n        uint256 returnAmount;\n        \n        // If the contract is valid at an anddress\n        bool isValid;\n\n        //Can the user recieve their atstake amount, pay their payoutAccount or refresh \n        bool returnReady;\n\n        //Address to whom the user agrees the money can go to if they dont complete the task\n        address payable payoutAccount;\n        address payable usersAddress;\n\n    }\n\n\n    event committed(\n        address indexed _from,\n        uint _value,\n        uint _days,\n        uint time\n    );\n\n    event committmentDetails(\n        uint256 atStakeAmount,\n        uint256 duration,\n        uint256 cutOff,\n        uint256 deadline,\n        uint256 latestSubmitDate,\n        uint256 daysMissed,\n        uint256 returnAmount\n    );\n\n    event endOfCommitment(\n        uint256 returnAmount,\n        uint256 daysMissed\n    );\n\n    event userMissedDay(uint256 totalDaysMissesd, uint256 missedDays, uint256 nextDeadline);\n    event userMadeDay(bool res, uint256 nextDeadline);\n\n\n    address payable creator;\n    mapping(address => Commitment) committedUsers;\n\n\n    constructor() public {\n        creator = msg.sender;\n    }\n\n    // cutOff refers to endingTime: duration is all days up until that given last dayTime\n    function initialCommit(uint256 cutOff, uint256 firstDeadline, address payable payoutAccount) public payable {            \n        require(!committedUsers[msg.sender].isValid && !committedUsers[msg.sender].returnReady, \"Already has a commitment\");\n        require(msg.value > 0.01 ether && msg.value < 0.1 ether, \"Sent too much or too little at stake\");\n        require(firstDeadline > block.timestamp , \"firstDeadline cant be before block.timestamp\");\n        uint256 remainder = (SafeMath.sub(cutOff, firstDeadline)) % 86400;\n        require(remainder == 0, \"Requiring firstDeadline to be exactly 24hrs from cutoff\" );\n        uint256 differenceOne = SafeMath.sub(firstDeadline, block.timestamp);\n\n\n        require(differenceOne >= 86400, \"Must have a day between now and firstDeadline\");\n        // adding one to account for the time between now and firstDeadline\n        uint256 differenceTwo = SafeMath.sub(cutOff, firstDeadline);\n\n        uint256 duration = (SafeMath.div(differenceTwo, 86400) + 1);\n        uint256 defaultSubmitDate = block.timestamp;\n        uint256 defaultDaysMissed = 0;\n        uint256 defaultReturnAmount = 0;\n        bool valid = true;\n        bool returnReady = false;\n\n\n        committedUsers[msg.sender] = Commitment(msg.value, duration, cutOff, firstDeadline, defaultSubmitDate, defaultDaysMissed, defaultReturnAmount, valid, returnReady, payoutAccount, msg.sender);\n        \n        // emit the event\n        emit committed(msg.sender, msg.value, duration, block.timestamp);\n    }\n  \n    function returnCommitmentDetails() public {\n        // require the person performing this call to be the person at this address\n        require(committedUsers[msg.sender].isValid, \"No commitment for address\");\n\n        emit committmentDetails(committedUsers[msg.sender].atStakeAmount, \n        committedUsers[msg.sender].duration,\n        committedUsers[msg.sender].cutOff, \n        committedUsers[msg.sender].nextDeadline, \n        committedUsers[msg.sender].latestSubmitDate,\n        committedUsers[msg.sender].daysMissed,\n        committedUsers[msg.sender].returnAmount);\n    }\n\n    function updateCommitment() public {\n        require(committedUsers[msg.sender].isValid, \"No commitment for address\");\n        uint256 missedDays;\n        // If we know the user didnt miss a day\n        if(block.timestamp < committedUsers[msg.sender].nextDeadline ){\n          uint256 checkDoubleSubmit = SafeMath.sub(committedUsers[msg.sender].nextDeadline, block.timestamp);\n          require(checkDoubleSubmit < 86400, \"User must submit only within 24Hrs from deadline\");\n          committedUsers[msg.sender].latestSubmitDate = block.timestamp;\n\n          if(committedUsers[msg.sender].cutOff != committedUsers[msg.sender].nextDeadline){\n                committedUsers[msg.sender].nextDeadline += 86400;\n                emit userMadeDay(true, committedUsers[msg.sender].nextDeadline);\n                return;\n          }\n        }\n        // If we know that the user missed atleast a day\n        if(block.timestamp > committedUsers[msg.sender].nextDeadline){\n            uint256 dateDifference = SafeMath.sub(block.timestamp, committedUsers[msg.sender].nextDeadline);\n            if(dateDifference < 86400){\n                missedDays = 1;\n            } else {\n                missedDays = SafeMath.div(dateDifference, 86400);\n            }\n            committedUsers[msg.sender].daysMissed += missedDays; \n\n            if(committedUsers[msg.sender].cutOff != committedUsers[msg.sender].nextDeadline){\n\n                committedUsers[msg.sender].nextDeadline +=  SafeMath.mul(86400, missedDays);\n                \n                // If today would be considered the cutoff if deadline was in order\n                if(committedUsers[msg.sender].cutOff != committedUsers[msg.sender].nextDeadline){\n                        // Set next deadline to day after today\n                        committedUsers[msg.sender].nextDeadline += 86400;\n                        emit userMissedDay(committedUsers[msg.sender].daysMissed, missedDays, committedUsers[msg.sender].nextDeadline);\n                        return;\n                }\n            }            \n        }\n\n        // If its the last day of the contract\n        if(committedUsers[msg.sender].cutOff == committedUsers[msg.sender].nextDeadline){\n            // calculate return amount = Multiple (amount at stake per day by days missed)\n            require(!committedUsers[msg.sender].returnReady, \"Cant update after cutOff, please retrieve or renew\");\n\n            if(committedUsers[msg.sender].daysMissed == 0){\n                committedUsers[msg.sender].returnAmount = committedUsers[msg.sender].atStakeAmount;\n            } else {\n            uint256 returnAmount = SafeMath.mul((SafeMath.div(committedUsers[msg.sender].atStakeAmount,  committedUsers[msg.sender].duration)), committedUsers[msg.sender].daysMissed);\n            committedUsers[msg.sender].returnAmount = returnAmount;\n            }\n\n            committedUsers[msg.sender].returnReady = true; \n\n            //emit user's Commitment is over\n            emit endOfCommitment(committedUsers[msg.sender].returnAmount, committedUsers[msg.sender].daysMissed);\n            return;\n        }\n   \n    }\n\n    function getBalance() public view returns (uint256) {\n        require(msg.sender == creator, \"Not the creator\");\n\n        return address(this).balance;\n    }\n\n    function resolveCommitment() public{        \n        require(committedUsers[msg.sender].returnReady, \"Commitment isn't ready to be returned\");\n        uint256 payout = SafeMath.sub(committedUsers[msg.sender].atStakeAmount , committedUsers[msg.sender].returnAmount);\n        if(payout > 0){\n            committedUsers[msg.sender].payoutAccount.transfer(committedUsers[msg.sender].returnAmount);\n        }\n        committedUsers[msg.sender].usersAddress.transfer(committedUsers[msg.sender].returnAmount);\n        committedUsers[msg.sender].returnReady = false;\n    }\n    // Contract destructor\n    function destroy() public  {\n        require(msg.sender == creator, \"Not the creator\");\n        selfdestruct(creator);\n    }\n\n}",
  "sourcePath": "/Users/connorbovino/Documents/arbNode/contracts/WriteMore.sol",
  "compiler": {
    "name": "solc",
    "version": "0.5.16+commit.9c3226ce.Emscripten.clang"
  },
  "schemaVersion": "3.3.4",
  "updatedAt": "2021-04-21T20:53:39.442Z",
  "devdoc": {
    "methods": {}
  },
  "userdoc": {
    "methods": {}
  }
}