{
  "contractName": "WriteMore",
  "abi": [
    {
      "inputs": [],
      "payable": false,
      "stateMutability": "nonpayable",
      "type": "constructor"
    },
    {
      "anonymous": false,
      "inputs": [
        {
          "indexed": true,
          "internalType": "address",
          "name": "_from",
          "type": "address"
        },
        {
          "indexed": false,
          "internalType": "uint256",
          "name": "_value",
          "type": "uint256"
        }
      ],
      "name": "committed",
      "type": "event"
    },
    {
      "anonymous": false,
      "inputs": [
        {
          "indexed": false,
          "internalType": "uint256",
          "name": "atStakeAmount",
          "type": "uint256"
        },
        {
          "indexed": false,
          "internalType": "uint256",
          "name": "duration",
          "type": "uint256"
        },
        {
          "indexed": false,
          "internalType": "uint256",
          "name": "lastDay",
          "type": "uint256"
        },
        {
          "indexed": false,
          "internalType": "uint256",
          "name": "latestSubmitDate",
          "type": "uint256"
        },
        {
          "indexed": false,
          "internalType": "uint256",
          "name": "daysMissed",
          "type": "uint256"
        },
        {
          "indexed": false,
          "internalType": "uint256",
          "name": "returnAmount",
          "type": "uint256"
        }
      ],
      "name": "committmentDetails",
      "type": "event"
    },
    {
      "anonymous": false,
      "inputs": [
        {
          "indexed": false,
          "internalType": "uint256",
          "name": "returnAmount",
          "type": "uint256"
        }
      ],
      "name": "endOfCommitment",
      "type": "event"
    },
    {
      "anonymous": false,
      "inputs": [
        {
          "indexed": false,
          "internalType": "bool",
          "name": "res",
          "type": "bool"
        }
      ],
      "name": "userMadeDay",
      "type": "event"
    },
    {
      "anonymous": false,
      "inputs": [
        {
          "indexed": false,
          "internalType": "uint256",
          "name": "totalDaysMissesd",
          "type": "uint256"
        },
        {
          "indexed": false,
          "internalType": "uint256",
          "name": "missedDays",
          "type": "uint256"
        }
      ],
      "name": "userMissedDay",
      "type": "event"
    },
    {
      "constant": false,
      "inputs": [
        {
          "internalType": "uint256",
          "name": "lastDay",
          "type": "uint256"
        }
      ],
      "name": "initialCommit",
      "outputs": [],
      "payable": true,
      "stateMutability": "payable",
      "type": "function"
    },
    {
      "constant": false,
      "inputs": [],
      "name": "returnCommitmentDetails",
      "outputs": [],
      "payable": false,
      "stateMutability": "nonpayable",
      "type": "function"
    },
    {
      "constant": false,
      "inputs": [],
      "name": "updateCommitment",
      "outputs": [],
      "payable": false,
      "stateMutability": "nonpayable",
      "type": "function"
    },
    {
      "constant": true,
      "inputs": [],
      "name": "getBalance",
      "outputs": [
        {
          "internalType": "uint256",
          "name": "",
          "type": "uint256"
        }
      ],
      "payable": false,
      "stateMutability": "view",
      "type": "function"
    },
    {
      "constant": false,
      "inputs": [],
      "name": "destroy",
      "outputs": [],
      "payable": false,
      "stateMutability": "nonpayable",
      "type": "function"
    }
  ],
  "bytecode": "0x608060405234801561001057600080fd5b50336000806101000a81548173ffffffffffffffffffffffffffffffffffffffff021916908373ffffffffffffffffffffffffffffffffffffffff160217905550610f54806100606000396000f3fe60806040526004361061004a5760003560e01c806312065fe01461004f5780637fcee9971461007a57806382b43e131461009157806383197ef0146100bf578063a210faac146100d6575b600080fd5b34801561005b57600080fd5b506100646100ed565b6040518082815260200191505060405180910390f35b34801561008657600080fd5b5061008f6101b7565b005b6100bd600480360360208110156100a757600080fd5b8101908080359060200190929190505050610740565b005b3480156100cb57600080fd5b506100d4610acc565b005b3480156100e257600080fd5b506100eb610bc8565b005b60008060009054906101000a900473ffffffffffffffffffffffffffffffffffffffff1673ffffffffffffffffffffffffffffffffffffffff163373ffffffffffffffffffffffffffffffffffffffff16146101b1576040517f08c379a000000000000000000000000000000000000000000000000000000000815260040180806020018281038252600f8152602001807f4e6f74207468652063726561746f72000000000000000000000000000000000081525060200191505060405180910390fd5b47905090565b600160003373ffffffffffffffffffffffffffffffffffffffff1673ffffffffffffffffffffffffffffffffffffffff16815260200190815260200160002060060160009054906101000a900460ff16610279576040517f08c379a00000000000000000000000000000000000000000000000000000000081526004018080602001828103825260198152602001807f4e6f20636f6d6d69746d656e7420666f7220616464726573730000000000000081525060200191505060405180910390fd5b60006102c742600160003373ffffffffffffffffffffffffffffffffffffffff1673ffffffffffffffffffffffffffffffffffffffff16815260200190815260200160002060030154610e77565b90506154608111610323576040517f08c379a0000000000000000000000000000000000000000000000000000000008152600401808060200182810382526025815260200180610efb6025913960400191505060405180910390fd5b6201518081111561045957600061033d8262015180610e8e565b905080600160003373ffffffffffffffffffffffffffffffffffffffff1673ffffffffffffffffffffffffffffffffffffffff1681526020019081526020016000206004016000828254019250508190555042600160003373ffffffffffffffffffffffffffffffffffffffff1673ffffffffffffffffffffffffffffffffffffffff168152602001908152602001600020600301819055507fbc1815924b1954e83d01117145236206afc7605ad0f1e6b67773403487809a06600160003373ffffffffffffffffffffffffffffffffffffffff1673ffffffffffffffffffffffffffffffffffffffff1681526020019081526020016000206004015482604051808381526020018281526020019250505060405180910390a1505b620151808110156104e85742600160003373ffffffffffffffffffffffffffffffffffffffff1673ffffffffffffffffffffffffffffffffffffffff168152602001908152602001600020600301819055507f37284f86774c8a3256fd9c2620dcf04d3c961b036501a3402afe7348a6034f666001604051808215151515815260200191505060405180910390a15b6000610536600160003373ffffffffffffffffffffffffffffffffffffffff1673ffffffffffffffffffffffffffffffffffffffff1681526020019081526020016000206002015442610e77565b90506201518081101561073c57600061061e6105d6600160003373ffffffffffffffffffffffffffffffffffffffff1673ffffffffffffffffffffffffffffffffffffffff16815260200190815260200160002060000154600160003373ffffffffffffffffffffffffffffffffffffffff1673ffffffffffffffffffffffffffffffffffffffff16815260200190815260200160002060010154610e8e565b600160003373ffffffffffffffffffffffffffffffffffffffff1673ffffffffffffffffffffffffffffffffffffffff16815260200190815260200160002060040154610ea2565b905080600160003373ffffffffffffffffffffffffffffffffffffffff1673ffffffffffffffffffffffffffffffffffffffff1681526020019081526020016000206005018190555060018060003373ffffffffffffffffffffffffffffffffffffffff1673ffffffffffffffffffffffffffffffffffffffff16815260200190815260200160002060060160016101000a81548160ff0219169083151502179055507f361da55ed43b35c36307c5f13245dceaadf1b9df1a9994542172d05311300684600160003373ffffffffffffffffffffffffffffffffffffffff1673ffffffffffffffffffffffffffffffffffffffff168152602001908152602001600020600501546040518082815260200191505060405180910390a1505b5050565b600160003373ffffffffffffffffffffffffffffffffffffffff1673ffffffffffffffffffffffffffffffffffffffff16815260200190815260200160002060060160009054906101000a900460ff161580156107ea5750600160003373ffffffffffffffffffffffffffffffffffffffff1673ffffffffffffffffffffffffffffffffffffffff16815260200190815260200160002060060160019054906101000a900460ff16155b61085c576040517f08c379a00000000000000000000000000000000000000000000000000000000081526004018080602001828103825260188152602001807f416c726561647920686173206120636f6d6d69746d656e74000000000000000081525060200191505060405180910390fd5b662386f26fc1000034118015610879575067016345785d8a000034105b6108ce576040517f08c379a0000000000000000000000000000000000000000000000000000000008152600401808060200182810382526024815260200180610ed76024913960400191505060405180910390fd5b60006108e66108dd8342610e77565b62015180610e8e565b9050600181101561095f576040517f08c379a00000000000000000000000000000000000000000000000000000000081526004018080602001828103825260188152602001807f4469646e742073656c65637420656e6f7567682064617973000000000000000081525060200191505060405180910390fd5b60004290506000809050600080905060006001905060008090506040518061010001604052803481526020018781526020018881526020018681526020018581526020018481526020018315158152602001821515815250600160003373ffffffffffffffffffffffffffffffffffffffff1673ffffffffffffffffffffffffffffffffffffffff168152602001908152602001600020600082015181600001556020820151816001015560408201518160020155606082015181600301556080820151816004015560a0820151816005015560c08201518160060160006101000a81548160ff02191690831515021790555060e08201518160060160016101000a81548160ff0219169083151502179055509050503373ffffffffffffffffffffffffffffffffffffffff167f6676dc1c0d0934e90eec426169e85d381e64053f8507fbc82f3a30aac8cbf6e7346040518082815260200191505060405180910390a250505050505050565b6000809054906101000a900473ffffffffffffffffffffffffffffffffffffffff1673ffffffffffffffffffffffffffffffffffffffff163373ffffffffffffffffffffffffffffffffffffffff1614610b8e576040517f08c379a000000000000000000000000000000000000000000000000000000000815260040180806020018281038252600f8152602001807f4e6f74207468652063726561746f72000000000000000000000000000000000081525060200191505060405180910390fd5b6000809054906101000a900473ffffffffffffffffffffffffffffffffffffffff1673ffffffffffffffffffffffffffffffffffffffff16ff5b600160003373ffffffffffffffffffffffffffffffffffffffff1673ffffffffffffffffffffffffffffffffffffffff16815260200190815260200160002060060160009054906101000a900460ff16610c8a576040517f08c379a00000000000000000000000000000000000000000000000000000000081526004018080602001828103825260198152602001807f4e6f20636f6d6d69746d656e7420666f7220616464726573730000000000000081525060200191505060405180910390fd5b7fd2085a95e4452c19da3f37b02785a3e312fe9973ab013422b7e65c593ebedbf0600160003373ffffffffffffffffffffffffffffffffffffffff1673ffffffffffffffffffffffffffffffffffffffff16815260200190815260200160002060000154600160003373ffffffffffffffffffffffffffffffffffffffff1673ffffffffffffffffffffffffffffffffffffffff16815260200190815260200160002060010154600160003373ffffffffffffffffffffffffffffffffffffffff1673ffffffffffffffffffffffffffffffffffffffff16815260200190815260200160002060020154600160003373ffffffffffffffffffffffffffffffffffffffff1673ffffffffffffffffffffffffffffffffffffffff16815260200190815260200160002060030154600160003373ffffffffffffffffffffffffffffffffffffffff1673ffffffffffffffffffffffffffffffffffffffff16815260200190815260200160002060040154600160003373ffffffffffffffffffffffffffffffffffffffff1673ffffffffffffffffffffffffffffffffffffffff1681526020019081526020016000206005015460405180878152602001868152602001858152602001848152602001838152602001828152602001965050505050505060405180910390a1565b600082821115610e8357fe5b818303905092915050565b6000818381610e9957fe5b04905092915050565b600080831415610eb55760009050610ed0565b818302905081838281610ec457fe5b0414610ecc57fe5b8090505b9291505056fe53656e7420746f6f206d756368206f7220746f6f206c6974746c65206174207374616b653620486f757220627566666572206265747765656e206e657874207375626d697373696f6ea265627a7a72315820a0e3312d6a83d1366d4c31bfcda0f62479ff6b5af4d2d08bafed76d2d79aee9764736f6c63430005100032",
  "source": "// SPDX-License-Identifier: MIT\npragma solidity >=0.4.22 <0.9.0;\n\nimport {SafeMath as SafeMath} from \"./SafeMath.sol\";\n\ncontract WriteMore  {\n    \n\n    struct Commitment {\n        uint256 atStakeAmount;\n        uint256 duration;\n        uint256 lastDay;\n        uint256 latestSubmitDate;\n        uint256 daysMissed;\n        uint256 returnAmount;\n        bool isValid;\n        bool returnReady;\n    }\n\n    event committed(\n        address indexed _from,\n        uint _value\n    );\n\n\n    event committmentDetails(\n        uint256 atStakeAmount,\n        uint256 duration,\n        uint256 lastDay,\n        uint256 latestSubmitDate,\n        uint256 daysMissed,\n        uint256 returnAmount\n    );\n\n    event endOfCommitment(\n        uint256 returnAmount\n    );\n\n    event userMissedDay(uint256 totalDaysMissesd, uint256 missedDays);\n    event userMadeDay(bool res);\n\n\n    address payable creator;\n    mapping(address => Commitment) committedUsers;\n\n\n    constructor() public {\n        creator = msg.sender;\n    }\n\n    function initialCommit(uint256 lastDay) public payable {\n\n\n        //need to require a value\n        require(!committedUsers[msg.sender].isValid && !committedUsers[msg.sender].returnReady, \"Already has a commitment\");\n        require(msg.value > 0.01 ether && msg.value < 0.1 ether, \"Sent too much or too little at stake\");\n\n\n        // prevents overflow \n        uint256 duration = SafeMath.div((SafeMath.sub(lastDay, block.timestamp)), 86400);\n\n        require(duration >= 1, \"Didnt select enough days\");\n\n        uint256 defaultSubmitDate = block.timestamp;\n        uint256 defaultDaysMissed = 0;\n        uint256 defaultReturnAmount = 0;\n        bool valid = true;\n        bool returnReady = false;\n\n\n        committedUsers[msg.sender] = Commitment(msg.value, duration, lastDay, defaultSubmitDate, defaultDaysMissed, defaultReturnAmount, valid, returnReady);\n        \n        // emit the event\n        emit committed(msg.sender, msg.value);\n    }\n  \n\n    function returnCommitmentDetails() public {\n        // require the person performing this call to be the person at this address\n        require(committedUsers[msg.sender].isValid, \"No commitment for address\");\n\n        emit committmentDetails(committedUsers[msg.sender].atStakeAmount, \n        committedUsers[msg.sender].duration,\n        committedUsers[msg.sender].lastDay, \n        committedUsers[msg.sender].latestSubmitDate,\n        committedUsers[msg.sender].daysMissed,\n        committedUsers[msg.sender].returnAmount);\n    }\n\n\n    function updateCommitment() public {\n        require(committedUsers[msg.sender].isValid, \"No commitment for address\");\n\n        // 6 hour buffer from last submit day\n\n        uint256 dateDifference = SafeMath.sub(block.timestamp, committedUsers[msg.sender].latestSubmitDate);\n\n\n        require(dateDifference > 21600, \"6 Hour buffer between next submission\");\n        \n        if(dateDifference >  86400){\n            //calulate the difference between the dates and increment daysMissed\n\n            uint256 missedDays = SafeMath.div(dateDifference, 86400);\n            committedUsers[msg.sender].daysMissed += missedDays; \n            committedUsers[msg.sender].latestSubmitDate = block.timestamp;\n\n            emit userMissedDay(committedUsers[msg.sender].daysMissed, missedDays);\n        }\n\n\n        if(dateDifference < 86400){\n          committedUsers[msg.sender].latestSubmitDate = block.timestamp;\n          emit userMadeDay(true);        \n        }\n\n        // if the last day - currentSubmissionDate is less than a day in difference- we are on the lastday\n        uint256 lastDayCheck = SafeMath.sub(committedUsers[msg.sender].lastDay, block.timestamp);\n        if(lastDayCheck < 86400){\n            // calculate return amount = Multiple (amount at stake per day by days missed)\n            uint256 returnAmount = SafeMath.mul((SafeMath.div(committedUsers[msg.sender].atStakeAmount,  committedUsers[msg.sender].duration)), committedUsers[msg.sender].daysMissed);\n            committedUsers[msg.sender].returnAmount = returnAmount;\n            committedUsers[msg.sender].returnReady = true; \n\n            //emit user's Commitment is over\n            emit endOfCommitment(committedUsers[msg.sender].returnAmount);\n        }\n\n        \n    }\n\n    function getBalance() public view returns (uint256) {\n        require(msg.sender == creator, \"Not the creator\");\n\n        return address(this).balance;\n    }\n\n\n    // Contract destructor\n    function destroy() public  {\n        require(msg.sender == creator, \"Not the creator\");\n        selfdestruct(creator);\n    }\n\n\n}",
  "sourcePath": "/Users/connorbovino/Documents/arbNode/contracts/WriteMore.sol",
  "compiler": {
    "name": "solc",
    "version": "0.5.16+commit.9c3226ce.Emscripten.clang"
  },
  "schemaVersion": "3.3.4",
  "updatedAt": "2021-04-10T17:32:30.864Z",
  "networkType": "ethereum",
  "devdoc": {
    "methods": {}
  },
  "userdoc": {
    "methods": {}
  }
}